:020000040800F2
:10000000F8D500207D030008B3420008FF36000841
:10001000B1420008E10B0008B548000800000000EC
:10002000000000000000000000000000B90200080D
:10003000130D0008000000001503000839460008F1
:100040009703000897030008970300089703000828
:100050009703000897030008970300089703000818
:100060009703000897030008970300089703000808
:1000700097030008970300089703000897030008F8
:1000800097030008970300089703000897030008E8
:1000900097030008970300089703000897030008D8
:1000A00097030008970300089703000897030008C8
:1000B00097030008970300089703000897030008B8
:1000C00097030008970300089703000897030008A8
:1000D0009703000897030008970300089703000898
:1000E0009703000897030008970300089703000888
:1000F0009703000897030008970300089703000878
:100100009703000897030008970300089703000867
:100110009703000897030008714700089703000839
:100120009703000897030008970300089703000847
:100130009703000897030008970300089703000837
:100140009703000897030008970300089703000827
:100150009703000897030008970300089703000817
:100160009703000897030008970300089703000807
:100170009703000897030008970300080000000099
:1001800097030008970300089703000897030008E7
:1001900097030008970300089703000897030008D7
:1001A0009D39000897030008750C000897030008A4
:1001B00097030008970300089703000897030008B7
:1001C000970300089703000800F002F800F065F8B4
:1001D0000AA090E8000C82448344AAF10107DA45A2
:1001E00001D100F05AF8AFF2090EBAE80F0013F08F
:1001F000010F18BFFB1A43F00103184720AE00009F
:1002000040AE00000A444FF0000C10F8013B13F020
:10021000070408BF10F8014B1D1108BF10F8015B5F
:10022000641E05D010F8016B641E01F8016BF9D152
:1002300013F0080F1EBF10F8014BAD1C0C1B09D1A9
:100240006D1E58BF01F801CBFAD505E014F8016B1B
:1002500001F8016B6D1EF9D59142D6D370470000AD
:100260000023002400250026103A28BF78C1FBD8BF
:10027000520728BF30C148BF0B6070471FB50AF056
:100280004DF99DE8030000F0C1FA00F0D9F91FBD57
:1002900010B5002000F046FA10BD00F023FB114617
:1002A000FFF7ECFF08F066FC00F05BFB03B4FFF720
:1002B000EFFF03BC00F0D6F92D4B19680868B0E8D1
:1002C000F04F80F30988BFF36F8F4FF0000080F389
:1002D000118870470000000008480068006880F33B
:1002E00008884FF0000080F3148862B661B6BFF34F
:1002F0004F8FBFF36F8F00DF00BF00BF08ED00E03E
:10030000DFF80C00016841F470010160704700BF24
:1003100088ED00E0EFF30980BFF36F8F144B1A688C
:100320001EF0100F08BF20ED108A20E9F04F10607A
:1003300009B44FF0500072B680F31188BFF34F8FAD
:10034000BFF36F8F62B609F0D1F94FF0000080F370
:10035000118809BC19680868B0E8F04F1EF0100F4A
:1003600008BFB0EC108A80F30988BFF36F8F704725
:100370006C000020EFF305807047000009488047BB
:1003800009480047FEE7FEE7FEE7FEE7FEE7FEE777
:10039000FEE7FEE7FEE7FEE704480549054A064B8F
:1003A000704700001D470008C9010008F8950020AB
:1003B000F8D50020F8B50020F8B5002053EA020C6B
:1003C00000F069802DE9F04B4FF00006002B1FBFB5
:1003D000B3FA83F503FA05F424FA05F65E4012BF7A
:1003E0001643B2FA82F502FA05F4C5F120051EBFE4
:1003F00022FA05FC44EA0C04203556EA044C4FEA84
:10040000144418BF641C4FF000084FF000099042DC
:1004100071EB030C39D3002919BFB1FA81F701FA46
:1004200007F6B0FA80F700FA07F6C7F120071EBFFB
:1004300020FA07FC46EA0C062037B6FBF4FCA7EBD3
:100440000507103F07F01F0BCBF120060CFA0BFB42
:100450002CFA06F644BFB3460026202FA4BF5E4602
:100460004FF0000B5BEA060C08BF4FF0010B19EBD5
:100470000B09ABFB027C48EB0608C01B06FB02CC59
:100480000BFB03CC71EB0C01C1E70B460246414666
:100490004846BDE8F08B13B54FF000004FF0000167
:1004A000AFF30080BDE81C40704710B5002000F09D
:1004B0005AF9FFF7EDFEBDE81040012000F0D2B878
:1004C0002DE9F041074615460E46102000F0D4F8FD
:1004D00004000AD06760C4E9026500F0C9F8016849
:1004E000216004600020BDE8F0810120FBE7032AC1
:1004F00040F2308010F0030C00F0158011F8013B41
:10050000BCF1020F624498BF11F801CB00F8013B27
:1005100038BF11F8013BA2F1040298BF00F801CBEB
:1005200038BF00F8013B11F0030300F02580083AC2
:10053000C0F0088051F8043B083A51F804CBA0E819
:100540000810F5E7121D5CBF51F8043B40F8043B6E
:10055000AFF30080D20724BF11F8013B11F801CBA3
:1005600048BF11F8012B24BF00F8013B00F801CB74
:1005700048BF00F8012B704710B5203AC0F00B803F
:10058000B1E81850203AA0E81850B1E81850A0E897
:100590001850BFF4F5AF5FEA027C24BFB1E81850F1
:1005A000A0E8185044BF18C918C0BDE810405FEA61
:1005B000827C24BF51F8043B40F8043B08BF7047DD
:1005C000D20728BF31F8023B48BF11F8012B28BFE2
:1005D00020F8023B48BF00F8012B704702F0FF03F0
:1005E00043EA032242EA024200F0CDB84FF0000293
:1005F00000B5134694469646203922BFA0E80C5019
:10060000A0E80C50B1F12001BFF4F7AF090728BFF3
:10061000A0E80C5048BF0CC05DF804EB890028BF6F
:1006200040F8042B08BF704748BF20F8022B11F098
:10063000804F18BF00F8012B704770477047704714
:1006400070B5064C7C44064D7D4403E02068204490
:100650008047241DAC42F9D170BD0000F4A9000010
:1006600000AA000001491820ABBEFEE726000200E8
:10067000004870478893002070B5064600F0AAF83D
:10068000056806F10B0020F00704B4429CBF00206F
:1006900070BD2B466A68BAB11068A04210D304F14D
:1006A000080188423CBF5068586007D35168101950
:1006B00041601168091B016058601460101D70BD15
:1006C00013465268002AE7D12146284600F08AF8EE
:1006D0000028DED170BD70B50446051F00F07AF821
:1006E0000068002C14BF446870BD002C18BFAC42D9
:1006F0003CBF20466468F8D301680A18AA4218BFB4
:10070000456003D12A6805461144016028684119F3
:10071000A1421CBF6C6070BD6168696021680844BB
:10072000286070BD2DE9F0410646FFF7A1FF804625
:10073000454613E016B1E068B0420ED1206828604B
:10074000D4E90101D8F8007088472046FFF7C3FFBD
:10075000D8F80000B842EBD100E025462C68002C08
:10076000E8D1BDE8F08110B500F08CF8BDE810408C
:1007700000F082B810B500F09DF8BDE8104000F020
:100780007BB84FF000020429C0F0128010F0030C77
:100790003FF42EAFCCF1040CBCF1020F18BF00F8EF
:1007A000012BA8BF20F8022BA1EB0C01FFF720BF03
:1007B0005FEAC17C24BF00F8012B00F8012B48BF81
:1007C00000F8012B7047000000487047509300204C
:1007D00070470000004870475893002070477047EA
:1007E0007047704738B504460A4600206946AFF3A3
:1007F0000080002808BF38BD02460099204600F05E
:1008000096F8012038BD012000F0CDB8F8B5AFF35F
:100810000080054600200C46102000BF0646A8199F
:10082000A0420DD9324669460020AFF30080070090
:1008300008BF00F0B8F80098A04218BF0546C419D8
:10084000FFF7C8FF05600746F01D20F007004619B6
:10085000284600F00AF8B44208BFF8BDA21B314692
:100860003868BDE8F84000F062B800210160C0E9D6
:100870000110704710207047002801D0FFF7F2BE2A
:100880007047000010B5002102A000F073F80120AD
:1008900010BD0000534947414252543A2041626E14
:1008A0006F726D616C207465726D696E6174696FD1
:1008B0006E00000010B5002102A000F05BF80120DE
:1008C00010BD00005349475056464E3A20507572AD
:1008D00065207669727475616C20666E2063616C48
:1008E0006C6564007546FFF76FFFAE46050069460C
:1008F000534620F00700854618B020B5FFF74CFDA1
:10090000BDE820404FF000064FF000074FF0000810
:100910004FF0000B21F00701AC46ACE8C009ACE891
:10092000C009ACE8C009ACE8C0098D467047034671
:1009300040688C46002818BF88423CBF0346406888
:10094000F8D318681844884207D00CF1030020F04F
:100950000700001D411A521A0146081D0A60FFF7E0
:10096000BABE10B50446AFF300802046BDE8104083
:10097000FFF79CBC70B505460C460A2000E06D1CD4
:1009800000F018F835B128780028F8D102E0641C8E
:1009900000F010F814B120780028F8D1BDE87040BC
:1009A0000A2000F007B810B500F00CF8BDE81040C0
:1009B000FFF762BF08B569468DF800000320ABBEA3
:1009C00008BD000010B5012805D0002103A0FFF7E5
:1009D000D1FF012010BD09A1F8E70000534947529B
:1009E000544D454D3A204F7574206F6620686561FF
:1009F00070206D656D6F7279000000003A204865C7
:100A00006170206D656D6F727920636F72727570A1
:100A10007465640070B590B04FF440640020A20388
:100A200007944FF480760B90EB25009571010391AC
:100A3000CDE908020C900A230D900EAA0F9069468A
:100A40000E900548CDE9053601F0D4FD002800D010
:100A5000012010B070BD00005011002070B5194C7D
:100A600017482060204601F058FDE0B900212046DB
:100A700000F02AF84FF08071002091FAA1F14FF4B4
:100A8000A066B1FA81F1491EC4E905600423E06162
:100A90001025206201222046C4E90351C4E9012344
:100AA00001F050FD08B1012070BD064803F03DFD86
:100AB00020B9044803F0F4FC0028F5D0042070BDF0
:100AC000001000A050110020414870B586B00168A8
:100AD00041F002010160006800F0020005903C480E
:100AE0002038016841F002010160016821F0020133
:100AF000016037480838016841F00201016001686F
:100B000001F002010591016841F0020101600168F4
:100B100001F002010591016841F0080101600168DE
:100B200001F008010591016841F0080101600168C8
:100B300001F008010591016841F0100101600168B0
:100B400001F010010591016841F0080101600068A1
:100B5000022101221F4E00F00800059040200323CF
:100B60000A248DE81F006946304600F05FFD002032
:100B7000694604250095092404940290304600F04B
:100B800055FD154E6802694604940090304600F009
:100B90004DFDA802694604940090304600F046FDE1
:100BA0000E4869460095049400F040FDE80269464D
:100BB00004940090304600F039FD00220F215C20A3
:100BC00001F066FB5C2001F056FB06B070BD000032
:100BD0003838024000040240000C0240001002407D
:100BE000FEE700001D4A30B5136823F001031360CF
:100BF0001B4A1368C3F30B140123A4F54065243D7D
:100C000006D01268C2F30B12A2F54064273C10D143
:100C1000144A12686AB9144A14684FF08A45B5EB51
:100C2000045F11D01268C2F30B02A2F58064833C0A
:100C30000AD00E4A93609368002BFCD110601068B4
:100C4000884209D0002030BD094A13601368002B88
:100C5000FCD1074A083AF1E7012030BD002000E04E
:100C600000ED00E0002004E00010005C00300240D5
:100C7000084C0258014800F069BA00001C0200202C
:100C8000F0B5059C44EA034503685C6C04F04044FD
:100C90002C435C640368DA634268B2F5403F02D0DB
:100CA0000068C160F0BD01F47F42856801F47F04F3
:100CB000224301F07F4301F47F0701F47F46CCB269
:100CC000BDB1012D16D001F47F02C1F3C401D20CD5
:100CD000022D11D0032D14D0320B390D15011A0F2E
:100CE00045EA0123210943EA02320A43006882638C
:100CF000F0BD1A432243F9E7B30A5B0143EAC2227B
:100D0000F3E7F40ADB0F640144EA822242EAC332C9
:100D1000EBE77047F0B5D1E90125D1E90343D1E90B
:100D200005762A43D1F800C044EA0304D1E9073527
:100D300042EA0402496A42EA0702BCF1010F42EAB0
:100D4000060208D004681A432A430A43E30BDB0374
:100D50001A4302600BE0066844682B4326F4F8450A
:100D600029430B4303606FF30E04224342600020CB
:100D7000F0BD426942EA410141610020704738B547
:100D800091E81C00C9686FF01F051A4305EB441475
:100D900044EA41210A4300920261002038BD00006C
:100DA0002DE9F043914691E81C006FF00F05521EAB
:100DB0002E0105EB03131A430B7E06EB04268C8AE7
:100DC0002F034FEA054C0D8A32434FF07F4808EB62
:100DD0000366CB68B9F1010F07EB05450CEB045432
:100DE0000CD081683F1107EB03331A432A43224397
:100DF000324301F070410A43826011E08168DFF8FC
:100E000028C0C7681B03A3F5805323432A4301EA84
:100E10000C0132430B43836007F070442243C260ED
:100E20000020BDE8F0830000FF0F0FFFF0B50126A2
:100E3000044600201E2301E05B1E05D303F01F07BC
:100E400006FA07F50D42F7D072B1082A0AD0102A27
:100E500005D0182A01D1072B06D30120F0BD082B9D
:100E6000FBD201E0102BF8D22368596121688B680E
:100E700023F0180313438B60F0BD000010B504008D
:100E800010D0607F20B900202077204600F032F893
:100E900021790220607739B1D4E902122046FFF7A8
:100EA000C5FF48B1012010BD216811484861206884
:100EB000816821F0180181606079A0B12168206902
:100EC0000861012220686369816821F0600119438B
:100ED00081602068A369816821F0800119438160E5
:100EE0006277002010BD21684FF0FF30E8E7000076
:100EF000B71DC10408B500680649884208D10648F4
:100F0000016841F480510160006800F48050009055
:100F100008BD000000300240303802402DE9F041A9
:100F200004460068016821F00501091D016000F018
:100F30006FFC002605464FF47A770FE000F068FC5E
:100F4000401BB8420AD9E16B032084F8386041F0B5
:100F50002001E16384F83900BDE8F0812068006871
:100F6000C007EBD120680121026822F40C52026014
:100F700084F83910002084F83860EDE7F8B50446AD
:100F80001D46DDE9063094F83860012E18D001279F
:100F900084F83870022684F83960266872612A461F
:100FA00000902046FFF76CFE2068016841F40C5168
:100FB00001602068016841F0010101600020F8BD76
:100FC0000220F8BD704700002DE9F041044600689A
:100FD0000129016800F1240541F00401016001D1FB
:100FE00025681C3500F014FC002706464FF47A787B
:100FF00010E000BF00F00CFC801B40450AD9E16BFB
:10100000032084F8387041F02001E16384F839004E
:10101000BDE8F08128688006ECD4206801210268D0
:1010200022F46452026084F83910002084F8387089
:10103000EEE7000070B590F83820012A23D0244C48
:10104000012680F83860022300EB011280F8393065
:10105000158CD36918320A2B43EA054515D0092BA4
:1010600013D0137B45EA0363056899B1E969A1438D
:101070001943E961016813680B6151680A291BD0A3
:10108000092919D01DE0022070BDD36803F07F4309
:101090002B43E9E7696AA143194369620168136850
:1010A0008B6151680A2901D009290AD1D1680268E7
:1010B00021F07F41916204E0D168026821F07F4114
:1010C0001162002180F8396080F83810084670BD40
:1010D0000F0003FF70B5040011D01B480068000228
:1010E00017D520680168C90703D02046FFF716FF0F
:1010F00004E0416A890604D5002106E048B10120D8
:1011000070BDC069800604D501212046FFF75CFF51
:10111000F4E7216800253F200D6021688860206881
:101120000561206885612068C56120684562206886
:101130004563204600F0C6F8E56384F83950002086
:1011400084F8385070BD0000303802402DE9F04777
:101150000446006800274FF004084FF00109466874
:101160000568F10714D0E90512D5036823F48073EC
:101170000360E06B40F00100E0632068C0F8089075
:1011800084F8398084F83870616909B1204688474D
:10119000B00615D5A80413D520682022036823F4CF
:1011A0000053036020688260E06B40F00200E0635F
:1011B00084F8398084F83870616909B1204688471D
:1011C000300715D5280513D520680822036823F4B5
:1011D0000063036020688260E06B40F00400E0631D
:1011E00084F8398084F83870616909B120468847ED
:1011F00070070CD568050AD52068026822F4806261
:1012000002602068C0F80880204600F05AF8B00755
:1012100013D5A80511D520680222036823F40073B2
:10122000036020688260E06BE06384F8399084F8A2
:101230003870216909B120468847F00612D5E804C4
:1012400010D52068016821F48051016022681021C6
:101250009160E16BE16384F83990204684F838703E
:10126000FFF7B0FEBDE8F08770B5040004D094F835
:101270003900002510B106E0012070BD204684F839
:10128000385000F031F8022084F83900D4E9000326
:101290000121026822F440321A4302602068A368E8
:1012A000426B22F007021A4342632068E368026C33
:1012B0006FF30D021A430264E56384F839100020CD
:1012C00070BD704700680649884207D1054801682B
:1012D00021F4000101605A2000F0BCBF70470000FB
:1012E00000B002403038024008B500680B4988421F
:1012F00012D10B48016841F400010160006800222E
:10130000052100F4000000905A2000F0C1FFBDE864
:1013100008405A2000F0AFBF08BD000000B00240F6
:1013200030380240F8B50446069894F83850012D3C
:1013300015D0012684F83860022584F839500090D1
:101340002046FFF79DFC2068016841F40C510160C4
:101350002068016841F0010101600020F8BD022011
:10136000F8BD2DE9F041876D044600F051FA0646BC
:1013700094F835000025022806D080206065012001
:1013800084F83450BDE8F0812068016821F016012E
:1013900001602068416921F080014161206C08B939
:1013A000A06C20B12068016821F00801016020686C
:1013B000016821F0010101600CE000F029FA801BB6
:1013C000052807D920216165032084F8345084F86A
:1013D0003500D7E720680068C007EED194F85C209C
:1013E0003F2001219040B86084F8345084F83510D3
:1013F0000020C7E770B5044600F00AFA0546601CF5
:1014000002D004480078044400F002FA401BA042D5
:10141000FAD370BD5C000020F0B587B01421684697
:10142000FFF7E4F82148016800293CD1012101605F
:101430001F48016841F00101016000680224002595
:10144000694600F00100059003264FF683700C27D3
:101450008DE8F100174800F0E9F848F233106946CA
:101460008DE8F100144800F0E1F84CF20370694691
:101470008DE8F100114800F0D9F84FF63F006946B9
:101480008DE8F1000E4800F0D1F8282069468DE87B
:10149000F1000C4800F0CAF8082069468DE8F10018
:1014A000094800F0C3F807B0F0BD000004000020B8
:1014B000383802400010024000180240000C024080
:1014C00000140240001C0240000802402DE9F04FC9
:1014D000DFF828E100224FF001094FF00F0A00BFAA
:1014E00009FA02F401EA0403A3427DD122F00306C3
:1014F00076444FEA827CD6F808784FEA1C7CDFF805
:1015000000810AFA0CFB40450BEA070501D10027D0
:101510002DE03C4FB84201D1012728E03A4FB842B4
:1015200001D1022723E0394FB84201D103271EE041
:10153000374FB84201D1042719E0364FB84201D1E4
:10154000052714E0344FB84201D106270FE0334F8E
:10155000B84201D107270AE0314FB84201D108272C
:1015600005E0304FB84201D1092700E00A2707FA09
:101570000CF7AF421CD12C4DD5F800C02F1D2CEA22
:10158000030CC5F800C03D6807F1040C9D433D60A5
:10159000DCF800700CF104059F43CCF800702F6854
:1015A0009F432F60D6F8085825EA0B05C6F808585F
:1015B00006680323D7084FEA42084FEA427C03FA41
:1015C00008F34FEADC6C9E4306600AFA0CF500EB68
:1015D00087073E6AAE433E62C5689D43C560456865
:1015E000A5434560846800E001E09C438460521C90
:1015F000102AFFF475AFBDE8F08F00000030014005
:10160000000002400004024000080240000C0240BA
:10161000001002400014024000180240001C02406A
:101620000020024000240240003C01402DE9F84F18
:1016300000224FF001094FF0030A4FF00F0E00BFD8
:101640000B6809FA02F42340A34270D14D68012DC2
:1016500005D0022D03D0112D01D0122D11D1856896
:101660005700CE680AFA07FC25EA0C05BE402E4357
:10167000866045680E79A543C6F3001696402E4352
:101680004660C56856008F680AFA06F4A543B7405D
:101690002F43C7604D68022D01D0122D12D1D508FD
:1016A0000F694FEA427C00EB8505AB462D6A4FEA95
:1016B000DC6C0EFA0CF807FA0CF725EA08052F4344
:1016C000CBF820700D79076805F00305A743B540F6
:1016D0003D4305604C68E40074D53D4C256845F4F5
:1016E00080452560246822F00307960704F48044AF
:1016F0000094384C360F2744D7F80848DFF8D8C094
:101700000EFA06F5604524EA050401D100252EE015
:10171000324DA84201D1012529E0314DA84201D125
:10172000022524E02F4DA84202D103251FE049E005
:101730002D4DA84201D1042519E02C4DA84201D11C
:10174000052514E02A4DA84201D106250FE0294DB8
:10175000A84201D107250AE0274DA84201D108255A
:1017600005E0264DA84201D1092500E00A25B54033
:10177000234E2543C7F808584D683468ED0324EA22
:10178000030400D51C431E4D34602D1D4E682C688B
:10179000B60324EA030400D51C43194E2C60083616
:1017A0004D683468ED0224EA030400D51C43144D4F
:1017B00034600C354E682C68B60224EA030400D568
:1017C0001C432C60521C102AFFF43AAFBDE8F88F7E
:1017D0004438024000300140000002400004024052
:1017E00000080240000C02400010024000140240B9
:1017F00000180240001C0240002002400024024069
:10180000003C01400AB1816170470904FBE7000018
:1018100001488068704700005C00002030B590F8F7
:101820004120202A24D190F84020012A20D00123F1
:1018300080F84030242280F84120202300240268D0
:10184000156825F0010515600268156825F48055B6
:101850001560026815680D43156001680A6842F05A
:1018600001020A6080F8413080F84040002030BD1D
:10187000022030BD30B590F84120202A22D190F8C6
:101880004020012A1ED0012380F84030242280F815
:101890004120202400250268136823F0010313600F
:1018A0000268136823F4706343EA01211160016840
:1018B0000A6842F001020A6080F8414080F8405016
:1018C000002030BD022030BD10B5040014D024200B
:1018D00084F841002068016821F001010160204680
:1018E00000F0C6F90020606484F84100206384F8A9
:1018F000420084F8400010BD012010BD70B5040006
:1019000004D094F84100002510B106E0012070BD1C
:10191000204684F8405000F0C1F9242084F84100AA
:101920002068016821F001010160D4E9001020F075
:10193000706008612068816821F400418160E0687E
:1019400021680128A06806D040F404408860E0685F
:10195000022803D006E040F40040F7E721684FF486
:101960000060486020212068114A436813434360A7
:101970002068C26822F40042C26054F8106B0DCC9B
:10198000104340EA0320F06054F81C3CD4E9000204
:101990001043186054F81C0D026842F00102026006
:1019A000656484F84110256384F84250002070BDBE
:1019B000008000022DE9FF4F83B0044690F84100FB
:1019C0009A469346DDE91087DDF84890202874D1C7
:1019D0005FEA080014D09FB194F8400001286CD051
:1019E000012084F84000FFF713FF01220646192367
:1019F0000090D103204601F053FF002871D103E08D
:101A00004FF4007060646CE00025C4F8248022214B
:101A100084F84110402084F842006564678553468D
:101A200065635A4604992046CDE9009601F0BEFE52
:101A300010B184F8405054E0618DFF2734484FF0D6
:101A40008078FF294FF0007A04D927853A4643462B
:101A5000009005E0618D53462185009094F8282080
:101A60002046049901F006FF00224B46042120463F
:101A7000009601F015FFA0BB2068616A406A0870FB
:101A8000606A401C6062208D401E81B22185608D9D
:101A9000401E6085608DD8B1D1B900224B468021AF
:101AA0002046009601F0FCFED8B9608DFF2805D9CC
:101AB00027853A464346009506E026E0608D53466A
:101AC0002085009594F828202046049901F0D2FE44
:101AD000608D0028C8D132464946204601F00DFFEE
:101AE00018B1012007B0BDE8F08F21682020094A15
:101AF000C86121684B6813404B6084F8410084F84A
:101B00004250002084F84050ECE70220EAE7000051
:101B10000024008000E800FE2DE9FF4F83B004465A
:101B200090F841009A469346DDE91087DDF8489029
:101B3000202871D15FEA080014D09FB194F84000CA
:101B4000012869D0012084F84000FFF761FE0122DE
:101B5000064619230090D103204601F0A1FE00287B
:101B60006ED103E04FF40070606469E00025C4F8B2
:101B70002480212184F84110402084F842006564CB
:101B80006785534665635A4604992046CDE9009619
:101B900001F03EFE10B184F8405051E0608DFF2707
:101BA0004FF08078FF284FF0007A04D927853A4615
:101BB0004346009505E0608D53462085009594F8D6
:101BC00028202046049901F055FE32464946204619
:101BD00001F0BAFEA0BB606A216800788862606A82
:101BE000401C6062608D401E6085208D401E80B26A
:101BF0002085618DD9B1D0B900224B468021204685
:101C0000009601F04DFED8B9608DFF2805D92785D3
:101C10003A464346009506E026E0608D534620850F
:101C2000009594F828202046049901F023FE608D49
:101C30000028CAD132464946204601F05EFE18B15E
:101C4000012007B0BDE8F08F20682021074AC1615C
:101C5000206843681340436084F8411084F8425080
:101C6000002084F84050ECE70220EAE700E800FE9C
:101C700000680749884209D10648016821F400013B
:101C8000016005484FF4C071FFF720BC70470000A9
:101C9000005C004040380240001C024010B586B095
:101CA000044614216846FEF7A1FC124920688842C8
:101CB0001ED11148016841F08001016000681221C5
:101CC000012200F080000590032304244FF4C0702B
:101CD0008DE81F0009486946FFF7A8FC0648103048
:101CE000016841F400010160006800F40000059003
:101CF00006B010BD005C004030380240001C0240BD
:101D00000248816802781144816070475C000020BD
:101D1000094810B5016841F400710160016841F49F
:101D200080710160032000F0D3FA002000F006F873
:101D300000F074FA002010BD003C024010B50022F3
:101D40000146362088B000F0A3FA362000F093FA5E
:101D50001348016841F010010160006805A900F016
:101D600010000690684601F0EFF801F00DF90D49FA
:101D7000400000220C4CB0FBF1F10C4840F2E7337C
:101D80000460C0E90332491EC0E9011201F0A2FB60
:101D900010B1012008B010BD044801F0CBFBF9E7F9
:101DA0004038024040420F00001000402004002054
:101DB0002DE9F041044690F8A00016460F46012890
:101DC0001DD0012584F8A050022084F8A10006EB64
:101DD000860000EBC600342204EB80003830FEF7AA
:101DE000CBFB32463946204601F0DEFD216800205B
:101DF0004D6284F8A15084F8A000BDE8F081022073
:101E0000FBE770472DE9F0410446006800274FF0DA
:101E10000408856B466B690715D5710713D5426BAE
:101E200022F0040242632068C0F83C80D4F8A40089
:101E300040F00100C4F8A40084F8A180204684F892
:101E4000A070FFF7DEFFA80716D5B00714D52068ED
:101E50000222436B23F0020343632068C263D4F879
:101E6000A40040F00200C4F8A40084F8A180204639
:101E700084F8A070FFF7C5FF05EA06004FF00108DF
:101E8000C0070ED021684A6B22F001024A63216824
:101E9000C1F83C8084F8A180204684F8A07000F04E
:101EA00091F8280710D530070ED520680822436B1B
:101EB00023F0080343632068C26384F8A1802046AE
:101EC00084F8A07000F05AF9BDE8F0812DE9F041E6
:101ED000040004D094F8A100002518B107E0012007
:101EE000BDE8F081204684F8A05000F097F834480F
:101EF000022184F8A110012202CC8B6923F07043E7
:101F00008B6194E84A001943E3681E4354F8043D8A
:101F100031439E693143996121688B6803408B602E
:101F20002168A68AA7698B683B4343EA06438B6016
:101F30002168CB680340CB602168A38B276ACE68F9
:101F40003E4346EA0346CE6021680B6903400B61BD
:101F50002368A68CA76A1969394341EA06411961C9
:101F600021684B6903404B612068A38D266B416952
:101F7000314341EA03414161236894F8351094F8F4
:101F80003600DE6A000406F07F46DE62236840EA1F
:101F9000012094F83460D96A31430143D962206842
:101FA000416B41F0060141632068816941F0010104
:101FB0008161C4F8A45084F8A120002090E70000BB
:101FC00000F800F0124910B5124A134C0B68118842
:101FD0008B4212D1518800F0AFF8206890F866105B
:101FE000491C80F8661003F08DF9206804F030F881
:101FF000BDE81040002004F061BB00F09DF8002017
:1020000004F05DFB206801688969BDE8104008475D
:10201000406801401C000020DC01002070B586B043
:10202000044614216846FEF7E1FA3C4920688842DC
:1020300072D13B48016841F080610160006800F0A6
:102040008060059036481438016841F01001016045
:10205000016801F010010591016841F4007101600F
:10206000016801F400710591016841F4806101602B
:10207000016801F480610591016841F0400101604F
:10208000016801F040010591016841F4807101602F
:10209000006800240E26694600F480700590102028
:1020A000009002251F48CDE90154CDE90346FFF712
:1020B000BDFA4EF6FF700090CDE901541A4869460A
:1020C000CDE90346FFF7B2FAF7200090CDE90154BD
:1020D00016486946CDE90346FFF7A8FA0921E80248
:1020E0000090CDE90154CDE9034111486946FFF75D
:1020F0009DFA4FF446400090CDE901540D486946E1
:10210000CDE90346FFF792FA00220521582000F09E
:10211000BFF8582000F0AFF806B070BD006801406D
:1021200044380240001002400024024000280240CF
:10213000001802400020024070B590F8A020012A4B
:1021400018D00D4D012380F8A030022280F8A12084
:10215000002450F8A02B566B26F001065663296028
:1021600050F8A01C4A6B42F001024A6343700470AD
:10217000204670BD022070BD4068014070470000DD
:10218000F0B5154C4378211D0A1D23600378F3B187
:1021900043680B60057BC67A817A437B2D07847B7D
:1021A00045EA0665C77B90F809C0067A90F800E01A
:1021B00045EAC14040EA834040EA444040EA0740E3
:1021C00040EA0C2040EA460040EA0E0001E0002010
:1021D00008601060F0BD000098ED00E0BFF35F8F75
:1021E000044800210368034A23F4803303607032FB
:1021F0001160704724ED00E0074A40F001000649F5
:1022000070321060086840F480300860BFF34F8F70
:10221000BFF36F8F7047000024ED00E00C4882B0E0
:10222000016841F080510160006800F0805000902A
:102230000748001D016841F48041016000680022E8
:102240000F2100F480400090901E02B000F020B8F2
:102250004038024000280DDB410900F01F028900D0
:10226000012001F1E0219040C1F88001BFF34F8FC0
:10227000BFF36F8F7047002809DB410900F01F0290
:102280008900012001F1E0219040C1F80001704770
:102290000E4BF0B41B680D46C3F30223C3F10706CF
:1022A000042E00D90426191D072901D2002300E0BD
:1022B000DB1E012404FA06F19C40491E2940641EDD
:1022C000994014402143F0BC06F0CFBA0CED00E079
:1022D000064900F0070210B54FF6FF040868044BEA
:1022E000204040EA02201843086010BD0CED00E0D9
:1022F0000000FA051848F8B5016841F08051016006
:102300000068164C00F080500090206840F4803047
:102310002060FFF77DFA4FF47A76054605E000BFAE
:10232000FFF776FA401BB0420FD86068C003F7D5BC
:10233000206840F400302060FFF76AFA054606E0A6
:10234000FFF766FA401BB04201D90320F8BD606870
:102350008003F5D50020F8BD4038024000700040F1
:10236000F8B500250446FFF753FA064694F84100F5
:10237000800736D5002084F84000206801684907AE
:102380000BD5016821F004010160E06BFEF7E9FF65
:1023900018B1606C40F0040060642068016841F08E
:1023A00002010160A06C0122022133460090204608
:1023B00002F0E4F8050014D121680220C860002270
:1023C000A06C202133460090204602F0D7F805008B
:1023D00007D120680121426922F04062426184F8FD
:1023E00041102846F8BD00002DE9F84F1E4615465D
:1023F0008A460446FFF70CFA814694F8400001280B
:102400000ED001274FF0000884F8407094F8410086
:10241000012807D05FF0020084F84080BDE8F88F03
:102420000220FBE74221C4F8448084F841100022D6
:1024300020214B462046009602F0A0F80028EBD160
:102440002168286888622168686848622168A868ED
:10245000C86220682969026822F4400242F48002BE
:1024600011430160E9684FF000622046CAF8281065
:10247000514601F041FF01224B46082120460096BB
:1024800002F07CF80028C7D122680821D16084F8C6
:102490004170C1E72DE9F84F17468B460446FFF718
:1024A000B7F9824694F8400001280ED001264FF07B
:1024B000000884F8406094F84100012807D0022504
:1024C00084F840802846BDE8F88F0220FBE74FF0F3
:1024D0000209C4F8448084F8419000222021534628
:1024E0002046009702F04AF80500E9D1002259463B
:1024F000204601F001FFDBF8240058B901225346C1
:1025000002212046009702F039F80500D8D1216851
:10251000C1F80C9084F84160D2E710B504000ED0E9
:102520002068016821F001010160204600F0A8F850
:102530000020606484F8410084F8400010BD012050
:1025400010BD0000F8B50446FFF762F9064624B155
:1025500094F84100002510B109E00120F8BD84F88D
:102560004050204600F0B0F841F28830A064206866
:102570006FF0FF02A168036802EB012223F4F85117
:1025800011430160A06C00222021334600902046B8
:1025900001F0F4FF30BBD4E90767226894F804C067
:1025A000E16813683143114E47EA0C6C104F41EA61
:1025B0000C0133404FF0010E194311602168D4E93A
:1025C0000526B4F810C04B6832433B4043EA0C4345
:1025D0001A434A6021680A6842F001020A60656491
:1025E00084F841E084F84050F8BD00002FFFFF0060
:1025F000FEF8E0FF2DE9F843164688460446FFF74B
:1026000007F9034694F8400001280ED0012084F811
:102610004000002794F84100012808D05FF002052F
:1026200084F840702846BDE8F8830220FBE7A06CE0
:102630008221676484F84110002220210090204606
:1026400001F09CFF0500EBD120687268016821F061
:10265000080111430160706808280AD1226810211E
:10266000306810632068C1602068016841F48011FF
:1026700001604FF040624146204601F03DFECFE749
:1026800010B500680B49884213D10B48016821F04E
:102690000201016009480421FEF718FF084844219F
:1026A000FEF714FFBDE8104006484FF46051FEF7F6
:1026B0000DBF10BD001000A03838024000100240CD
:1026C00000040240000C02402DE9F04387B00446AC
:1026D00014216846FDF78AFF2B49206888424FD1B4
:1026E0002A48016841F002010160006800F0020020
:1026F000059026480838016841F010010160016822
:1027000001F010010591016841F0020101600168CA
:1027100001F002010591016841F0080101600068C3
:10272000092701AA4FF0040800F00800CDF8008046
:10273000022469460025CDE904700326144882E886
:102740007000FEF773FF0A21DFF848904020CDE9C2
:1027500003618DE8310069464846FEF767FF01AA2C
:10276000CDF800806946484682E8F000FEF75EFF3B
:102770004FF4605069468DE8F1000748FEF756FFB8
:1027800007B0BDE8F0830000001000A03838024018
:102790000010024000040240000C02402DE9F84FF6
:1027A00015460F460446FFF733F8824620688169D4
:1027B00094F8403000F12009012B0DD001264FF094
:1027C000000884F8406094F84120012A06D00220D5
:1027D00084F84080BDE8F88F0220FBE7C4F844800D
:1027E000BFB3222284F841200269521CA26302690D
:1027F000521C62632763426922F0406242F08062A9
:102800004261206881610EE00621204601F0B6FE9B
:10281000E0B999F80000216B0870206B401C206320
:10282000A06B401EA063A06B53464FF001020095C1
:102830000028E9D14FF00201204601F09FFE28B99F
:1028400021680220C8602046FFF78AFD84F84160B5
:10285000BEE7FFE7616C012041F008016164B7E762
:102860002DE9F84F15460F460446FEF7D1FF94F8C0
:10287000401082462068012900F120090ED001266F
:102880004FF0000884F8406094F84110012907D007
:102890005FF0020084F84080BDE8F88F0220FBE77B
:1028A000C4F844809FB3122184F841100169491C87
:1028B000E1620169491CA1626762416921F04061DE
:1028C00041610EE00421204601F058FEE0B9606A43
:1028D000017889F80010606A401C6062E06A401E5E
:1028E000E062E06A53464FF0010200950028E9D10A
:1028F0004FF00201204601F041FE28B92168022074
:10290000C8602046FFF72CFD84F84160C2E7FFE76E
:10291000616C012041F008016164BBE72DE9F84FCB
:1029200004460078DFF824944FF000063746C007CD
:102930000ED0D9F8001021F40001C9F80010D9F820
:102940000010626B1143C9F80010606B00B90126DA
:10295000FE4D2068843500030ED5E16B286820F415
:10296000401008432860E06BB0F5801F01D010B123
:1029700002E0012600E0012720684FF4800BC0022E
:102980000CD5216C286820F4400008432860206C96
:10299000584501D1012601E000B901272068C10195
:1029A00000D50126800666D5E8483830016841F038
:1029B000805101600068DFF898A300F0805000901B
:1029C000DAF8001041F48071CAF80010FEF720FF19
:1029D000804605E0FEF71CFFA0EB080064287DD8C8
:1029E000DAF80000C005F5D5DFF8608308F1680863
:1029F000D8F8000010F440702AD0218E01F4407104
:102A0000814225D0D8F80010D8F8002021F4407178
:102A100042F48032C8F80020D8F8002022F4803236
:102A2000C8F80020C8F80010D8F80000C0070FD080
:102A3000FEF7EEFE824607E0FEF7EAFEA0EB0A0193
:102A400041F288308142CAD8D8F800008007F3D517
:102A5000206BC0F3012103297ED0D9F8001021F4A6
:102A6000F811C9F80010228ED8F80010C2F30B023A
:102A70001143C8F800102078C00607D5286820F058
:102A8000807028602868A16B084328602188AF48BF
:102A90008830490405D5626E016821F44031114344
:102AA00001602188090405D5A26E016821F4402146
:102AB000114301602168C90305D5E26E016821F464
:102AC0004011114301602168890305D5226F016817
:102AD00021F4400111430160217800E018E149062A
:102AE00005D5626C016821F0030111430160217872
:102AF000090605D5A26C016821F00C0111430160A3
:102B00002188C90505D5E26C016821F03001114327
:102B100001602188890505D5226D016821F0C00179
:102B2000114301602188490505D5626D016821F4D2
:102B30004071114301602188090505D5A26D016826
:102B400021F44061114301602188C90407D5E26D79
:102B5000016821F4405100E041E011430160218807
:102B6000890405D5226E016821F4404111430160BA
:102B70002168490205D5A26F016821F080611143E7
:102B8000016021684FF0006A890209D5E26F01688F
:102B900021F0006111430160E16F514500D101272F
:102BA00021680A0700D50127490305D5626F01682E
:102BB00021F04071114301602168090206D5D4F863
:102BC0008020016821F0805111430160DFF8849179
:102BD000012E0ED02068B0F1007F0AD08FE05E4A4F
:102BE000D9F80030104023F4F8120243C9F800204D
:102BF00039E7D9F800004E4620F08060C9F800009F
:102C0000FEF706FE804605E0FEF702FEA0EB080098
:102C100064287DD830680001F6D421784B487C3098
:102C2000C90712D0616B81B9237A62680168D0F854
:102C300000C09201C1F3014142EA0142CCF30361B9
:102C400042EA016141EA0371016021680A0303D588
:102C5000E26BB2F5801F04D0C9021AD5216C594528
:102C600017D16368016894F80CC002689B01C1F336
:102C7000014143EA0141C2F3027241EA0C6141EAB7
:102C8000027101602968626A21F01F01521E11431E
:102C900029602168C90110D5238A62680168D0F8CB
:102CA00000C09201C1F3036142EA034242EA0162B9
:102CB000CCF3027142EA01710160216889010CD5EF
:102CC0006168228A237B94F808C0890141EA0241A5
:102CD00041EA036141EA0C7101603168B04641F09C
:102CE00080613160FEF794FD064604E0FEF790FD3A
:102CF000801B64280CD8D8F800000001F6D56FB30B
:102D0000D9F800004E4620F08050C9F8000000E0DD
:102D100079E0FEF77DFD074605E000BFFEF778FD90
:102D2000C01B64286FD83068C0438000F6D50748C0
:102D3000216880300A0301D5E26B1AB1C90225D59A
:102D4000216C19BB63690168277E08E008380240DE
:102D50000070004000380240FFFCFF0F5AE002689C
:102D6000C1F301419B0143EA0143C2F3027143EA0B
:102D7000076242EA0171016029686FF0FF03A26AED
:102D800021F4F85103EB02221143296021688902E2
:102D900012D5E16F51450FD1238C62690168076834
:102DA0009201C1F3036142EA034242EA0162C7F3BE
:102DB000027142EA017101602178090716D5616943
:102DC0000268D0F800C08B01277FC2F30362CCF306
:102DD000014143EA014141EA026141EA07710160B0
:102DE0002868E16A20F4403008432860306840F0E9
:102DF00080503060FEF70CFD044607E0FEF708FD4A
:102E0000001B642802D90320BDE8F88F3068C04356
:102E10008000F3D40020F7E72DE9F04705000F46C6
:102E200063D0444E306800F00F00B84209D23068D9
:102E300020F00F0038433060306800F00F00B842D7
:102E400053D128683C4C810712D5400703D5206830
:102E500040F4E05020602878000703D5206840F453
:102E600060402060A968206820F0F00008432060DE
:102E70002878C0072AD0304968680839012810D05E
:102E80000968022810D0890700292EDA216821F06C
:102E9000030101432160FEF7BBFC804641F2883903
:102EA0000DE009688903EFE78901EDE7FEF7B0FC63
:102EB000A0EB0801494502D90320BDE8F087686806
:102EC000216801F00C01B1EB800FEFD1306800F008
:102ED0000F00B8420BD9306820F00F003843306043
:102EE000306800F00F00B84201D00120E5E72878F3
:102EF000400705D5E968206820F4E05008432060C9
:102F00002878000706D52869216821F4604141EA44
:102F1000C000206000F048F82168084AC1F303119E
:102F2000515CC8400649086006480068FEF706FF85
:102F30000020C2E7003C0240083802403CA50008DF
:102F400068000020600000200D4A0F2330B50360A8
:102F50004FF4E0540B4B156805F003054560156808
:102F600005F0F0058560156805F4E055C560126848
:102F700004EAD2020261186800F00F00086030BD58
:102F800008380240003C02400449054809680068CE
:102F9000044AC1F38221515CC8407047083802409E
:102FA000680000204CA50008154910B515480968AF
:102FB00011F00C0213D01449042A0FD0082A0ED1A4
:102FC0000F4C241F2268236802F03F025B0207D5E2
:102FD0002068C0F38810A0FB010106E0084610BD80
:102FE0002168C1F38811A1FB00010023FDF7E6F978
:102FF0002168C1F30141491C4900B0FBF1F010BD4B
:10300000083802400024F40040787D012DE9F84F93
:1030100004004FF000076ED02078DFF868A3AAF113
:103020000408C007A8F104054CD0DAF80010504697
:10303000C1F38101012908D00068C0F38100022892
:103040000AD1D8F80000400206D52868800339D597
:1030500060680028DFD035E06068B0F5803F0BD0B5
:1030600010B1B0F5A02F11D0286820F4803028606E
:10307000286820F4802002E0286840F4803028602E
:10308000606890B1FEF7C4FB06460AE0286840F489
:1030900080202860F0E700BFFEF7BAFB801B6428A1
:1030A00072D828688003F7D50CE0FEF7B1FB06461E
:1030B00005E000BFFEF7ACFB801B6428F0D8286851
:1030C0008003F7D42078800742D5DAF80010504604
:1030D00011F00C0F08D00068C0F3810002280BD15A
:1030E000D8F80000400207D42868800718D5E068A7
:1030F000012800D114E041E1E0680028286817D0D9
:1031000040F001002860FEF783FB064605E000BFA3
:10311000FEF77EFB801B0228C2D828688007F7D5FF
:103120002069296821F0F80141EAC00028600FE019
:1031300020F001002860FEF76BFB064605E000BFAB
:10314000FEF766FB801B02281ED828688007F7D48C
:103150002078000729D58B4861696C3000298146A9
:10316000016812D041F001010160FEF751FB0646F3
:1031700005E000BFFEF74CFB801B022804D8D9F8FD
:1031800000008007F6D510E089E021F00101016020
:10319000FEF73EFB064604E0FEF73AFB801B0228E2
:1031A0007DD8D9F800008007F6D4207840076BD589
:1031B000DFF8D09109F13809D9F80000C0000BD42C
:1031C000D9F8001041F08051C9F80010D9F800007A
:1031D000012700F0805000906B480168C90512D4A7
:1031E0000168834641F480710160FEF711FB0646D9
:1031F00005E000BFFEF70CFB801B64284FD8DBF80E
:103200000000C005F6D55F4EA068683601280AD0D8
:1032100008B1052811D0306820F001003060306816
:1032200020F0040002E0306840F001003060A06847
:10323000A0B1FEF7EDFA83460CE0306840F00400E0
:103240003060F0E7FEF7E4FAA0EB0B0141F28830C2
:10325000814266D830688007F4D50EE0FEF7D8FAD0
:10326000834607E0FEF7D4FAA0EB0B0141F2883069
:10327000814256D830688007F4D42FB1D9F80010B5
:1032800021F08051C9F80010A069C8B3DAF8001025
:10329000C1F3810102294BD00228286800E040E0F8
:1032A00020F08070286003D0FEF7B2FA04463BE0BD
:1032B000FEF7AEFA064604E0FEF7AAFA801B0228E3
:1032C0002FD828688001F7D4D4E90962D4E907012E
:1032D0002E4B570894F82C20084303EB074343EA8E
:1032E0008611084340EA026040F00050C8F8000030
:1032F000286840F080702860FEF78AFA044606E0ED
:103300003EE000BFFEF784FA001B022809D82868B7
:103310008001F7D534E000BFFEF77AFA001B0228DF
:1033200002D90320BDE8F88F28688001F4D427E093
:103330000128D8F8000021D0E16900F480028A4217
:103340001CD1216A00F03F028A4217D1626A47F617
:10335000C0710140B1EB821F10D1A16A4FF0FF3262
:1033600000F4403302EB5101B3EB014F06D194F866
:103370002C1000F07060B0EB016F01D00120D1E79C
:103380000020CFE708380240007000400000FFFF37
:1033900070B504000D4603D094F82C0010B107E07E
:1033A000012070BD002084F82D00204600F011F8A7
:1033B000022084F82C002068211DFDF7ABFCD4E925
:1033C00000022946FDF7ECFC012084F82C000020C7
:1033D00070BDFEF721B810B5044690F82C00022805
:1033E00009D0022084F82C002068FDF7C2FC0120DF
:1033F00084F82C00002010BD70B5044690F82C0015
:103400000D4602280DD0022084F82C002068FDF71C
:10341000B6FC2868022805D05FF0010084F82C0073
:10342000002070BD0520F9E7704770477047000025
:10343000F0B590F83C20012A3BD01F4E012480F8C3
:103440003C40022280F83D2002681C4D5368B24285
:10345000D2F808C001D0AA4203D14F6823F4700308
:103460003B430F6823F070031F4357600268B2426A
:1034700013D0B2F1804F10D0114B9A420DD0114BA6
:103480009A420AD0104B9A4207D0AA4205D00F4B5D
:103490009A4202D00E4B9A4204D189682CF08003E4
:1034A00019439160002180F83D4080F83C100846A7
:1034B000F0BD0220F0BD000000000140000401400A
:1034C0000004004000080040000C004000400140A3
:1034D0000018004010B5040003D094F83D0010B16E
:1034E00007E0012010BD002084F83C00204600F0D9
:1034F0000DF8022084F83D002068211D01F03EF9FE
:10350000012084F83D00002010BD000008B50068CF
:103510000649884208D10648016841F0200101604F
:10352000006800F02000009008BD0000001400407A
:10353000403802400168094ACB6843F00103CB6080
:10354000016888681040062806D0B0F5803F03D097
:10355000086840F001000860002070470700010083
:10356000704770B50446006800250169C9438907A2
:1035700015D4C168C943890711D4EA1E026101212B
:103580002177206880698007204602D0FFF7E8FF96
:1035900004E000F0A7F8204600F0A5F825772068A1
:1035A0000169C943490717D4C168C943490713D4FE
:1035B00002216FF00402026121772068806910F413
:1035C000407F204602D0FFF7CBFF04E000F08AF8EE
:1035D000204600F088F8257720680169C94309076B
:1035E00016D4C168C943090712D404216FF0080238
:1035F000026121772068C0698007204602D0FFF76A
:10360000AFFF04E000F06EF8204600F06CF825777C
:1036100020680169C943C90617D4C168C943C906EE
:1036200013D408216FF01002026121772068C0696D
:1036300010F4407F204602D0FFF792FF04E000F034
:1036400051F8204600F04FF8257720680169C943FA
:10365000C90708D1C168C943C90704D1891E0161DE
:10366000204600F041F820680169C943090609D4E1
:10367000C168C943090605D46FF080010161204685
:10368000FFF7D3FE20680169C943C90509D4C168A1
:10369000C943090605D46FF4807101612046FFF724
:1036A000C3FE20680169C943490609D4C168C943FA
:1036B000490605D46FF040010161204600F01EF874
:1036C00020680169C94389060BD4C168C9438906CA
:1036D00007D46FF0200101612046BDE87040FFF77C
:1036E000A5BE70BD7047704700680349884201D18C
:1036F000FEF706BB70470000001000407047FEE771
:1037000001688A69D243920701D400228A62006864
:103710008169C943C90703D0816941F00101816111
:10372000704700002DE9F0410446006890460E46BF
:103730008069C043C00635D40025202720688069F1
:10374000C043800616D5701CF8D0FEF761F8A0EBD8
:103750000800B04201D8002EF0D1606C84F84050CF
:1037600040F02000606484F8417084F842500120E9
:10377000BDE8F08121681020C8612068C76120463B
:10378000FFF7BEFF2068084942680A404260606C4B
:1037900040F00400606484F8417084F8425084F87A
:1037A0004050E4E70020E3E700E800FE2DE9F8439D
:1037B000174604461548DAB2DDE908981E4600901F
:1037C0000023204600F056F842464946204600F0C5
:1037D000BBF8B8B9012EFDB208D02068390A816261
:1037E00042464946204600F0AFF858B92068856245
:1037F000002240214B462046CDF8008000F050F8D2
:10380000002800D00120BDE8F883000000200080DF
:103810002DE9F8430446164817461E46DAB20090D2
:10382000C3022046DDE9089800F024F842464946E4
:10383000204600F089F8B8B9012EFDB208D0206802
:10384000390A816242464946204600F07DF858B95F
:1038500020688562002280214B462046CDF80080FA
:1038600000F01EF8002800D00120BDE8F883000019
:103870000020008070B50068C1F30901074E41EADD
:103880000241049C4FF480654268194305EA54558F
:103890003543AA4321430A43426070BDFF63FF03DF
:1038A0002DE9F0411D4617460E460446DDF8188006
:1038B00008E0681C06D0FDF7ABFFA0EB0800A842AB
:1038C0000BD855B12068806936EA000013D000207B
:1038D000B842EED00020BDE8F081626C002084F890
:1038E0004000202142F02002626484F8411084F8F4
:1038F00042000120EFE70120EAE770B516460D46C9
:1039000004460DE0324629462046FFF70BFF08B17A
:10391000012070BDFDF77CFF801BA84207D835B1A0
:1039200020688069C0438006ECD4002070BD626CC2
:10393000002084F84000202142F02002626484F8D4
:10394000411084F84200E3E770B516460D46044680
:103950000FE0324629462046FFF7E4FE08B1012079
:1039600070BD681C05D0FDF753FF801BA84207D827
:1039700035B120688069C0438007EAD4002070BD5B
:10398000626C002084F84000202142F02002626432
:1039900084F8411084F84200E1E700000148FEF796
:1039A00031BA0000A80200202DE9FE4F81460068D0
:1039B000882493468D888C2204EBCB178A46C368F3
:1039C0009421BE46C459C3F30B432B4404F4704402
:1039D0001F04019702EBCB1240F80E4001EBCB1312
:1039E000DAF800709C214FF0AC0C01EBCB1440F2E4
:1039F000077102910CEBCB11D9F800C0982500207B
:103A0000CDF800C0A02605EBCB15DCF80CC006EB0A
:103A1000CB16CCF30B4C0CF1010C07EB0C08DDF8CA
:103A200000C0019F48EA07084CF80E80D9F80070E2
:103A3000BAF80CC0B846FF68C7F30A0767444FEAF4
:103A4000074E58F8027007F4704C48F802C0D9F8D5
:103A500000C0DAF80870DCF80C80C8F30A0808F136
:103A60000108B84448EA0E084CF80280D9F8002052
:103A7000D75827F00707D750D9F80070DAF8102088
:103A8000FA509AF831209AF818304FEA022C9AF836
:103A90003220120442EA0362D9F800301F5918514B
:103AA0009AF8303043EA0C031343D9F8002013513D
:103AB000D9F80020535923F0FF035351D9F80020BF
:103AC000DAF814305351D9F800209359029CA343DB
:103AD0009351D9F80030DAE9072422439A51D9F8F2
:103AE000002053585050D9F80020DAF824005050E4
:103AF000DAF81000C8B301283AD004283AD00228D6
:103B000038D0032836D0072834D00120D9F8003027
:103B1000B02505EBCB11B42284245D5802EBCB1207
:103B200005F0E0255D50DAE9003504EBCB14EB1A23
:103B3000BAF8285043434543D9F80000DB1C43EA58
:103B400005434350D9F8000081586FF30A018150B2
:103B5000D9F80000DAF82C108150D9F8000001598A
:103B600041F001010151BDE8FE8FFFE70420CDE7E0
:103B70000320CBE70220C9E72DE9FF410024009490
:103B8000019402940394FEF729FB1B208DF8080092
:103B90008DF8094001258DF8005003278DF80A4063
:103BA0004FF0104668468DF8014001968DF80B7075
:103BB0000394FEF7E5FA17208DF808008DF80C4005
:103BC00068468DF809408DF80D408DF800508DF84D
:103BD0000A408DF80E508DF8015001968DF80B704B
:103BE0008DF80F40FEF7CCFA0420FEF705FBBDE888
:103BF000FF8100002DE9F04F89B01C216846FCF7D9
:103C0000F5FC32480025304A402310264FF00409C5
:103C100007214FF0030AC0E90025C0E904635B01F6
:103C20004FF4C0728261C0E902595A00C0E90753DB
:103C3000C0E909250227CDE90071CDE90291CDE95E
:103C400004A769460697FFF7A3FB204C4FF0010835
:103C500007954FF6FF7B34341C485A462146C4E989
:103C60000086C4E90285FFF7C7FB0120FDF7C2FB10
:103C7000C4E9028515485A46C4E900762146FFF793
:103C8000BBFB08211148C4E90215C4E900A65A4645
:103C90002146FFF7B1FB4FF40C7007905A462146BE
:103CA000C4E902800948C4E90096FFF7A5FB07486C
:103CB00040F22B71FFF78FFB4FF0204143F2D2000F
:103CC000086009B0BDE8F08F400100A0DC030020CF
:103CD0002DE9F04F87B014216846FCF787FCFE48B9
:103CE000016841F010010160016801F010010591C7
:103CF000016841F040010160016801F04001059157
:103D0000016841F002010160016801F002010591C2
:103D1000016841F008010160016801F008010591A6
:103D2000016841F004010160016801F0040105919E
:103D3000016841F001010160016801F00101059194
:103D4000016841F400710160016801F4007105919E
:103D5000016841F480710160016801F4807105918E
:103D6000016841F480610160016801F4806105919E
:103D7000016841F020010160016801F02001059116
:103D8000016841F08001016000680122202100F0FB
:103D900080000590D148FDF735FDD14800220C2167
:103DA000FDF730FDCF4801220821FDF72BFD012250
:103DB000CB481103FDF726FD4FF4005BCA480022F3
:103DC0005946FDF71FFDC9480022C821FDF71AFD1D
:103DD00000244FF00809C64869460294CDE90094D2
:103DE000FDF724FC022502944FF4D04069460326D7
:103DF000CDE900050B20CDE90360BC48FDF716FCBA
:103E000001276946300200901220CDE90107042005
:103E1000CDE90340B748FDF709FC02AA43F6234069
:103E2000CDE900054FF00A08B24882E85001694622
:103E3000FDF7FCFB10200090CDE90154AD48694628
:103E4000CDE90345FDF7F2FB80200090CDE9015458
:103E5000A2486946CDE90349FDF7E8FB4FF4F85065
:103E60000294CDE900050C206946CDE90360A24823
:103E7000FDF7DCFBA8030090CDE901549F4869469B
:103E8000CDE90347FDF7D2FB60204FF00D0A00900B
:103E90006946CDE901549648CDE9034AFDF7C6FBD2
:103EA0008020009007206946CDE90154CDE9034008
:103EB0009048FDF7BBFBE8026946CDE90004904855
:103EC0000294FDF7B3FB402000908E486946CDE98F
:103ED00001048248FDF7AAFB4FF4E050694602AAAC
:103EE000CDE90005854882E85001FDF79FFBF020F1
:103EF0000090CDE901547A486946CDE90348FDF7C1
:103F000095FB68020090CDE9015478486946CDE9F7
:103F10000348FDF78BFB20200090CDE901746F482A
:103F200069460394FDF782FBCDF800906946CDE920
:103F300001546A48CDE9034AFDF778FB41F20C00D1
:103F40000090CDE90174664869460394FDF76EFB65
:103F500069486946CDE900B40294FDF767FBCDF8E6
:103F600000906946CDE901745E480394FDF75EFB5D
:103F700028020090CDE901545C486946CDE9034A26
:103F8000FDF754FB10206946CDE900045348029424
:103F9000FDF74CFB04200294CDE900050C20694696
:103FA000CDE903604D48FDF741FB48F20400694646
:103FB000CDE900044C480294FDF738FB052000953C
:103FC000CDE901546946CDE903404548FDF72EFB94
:103FD000CDF800B06946CDE9017443480394FDF77C
:103FE00025FB4FF4BC400090CDE901543E486946A2
:103FF000CDE9034AFDF71AFB00976946CDE9015464
:104000003748CDE90345FDF711FB28020090072052
:104010006946CDE90154CDE903403848FDF706FB78
:10402000E8010090CDE9015434486946CDE90347E1
:10403000FDF7FCFA33486946CDF800B0CDE901043C
:104040002748FDF7F3FAC020694602AACDE900052A
:10405000294882E85002FDF7E9FA1020694602AAD1
:10406000CDE90005204882E85001FDF7DFFAC820BD
:104070000090CDE901741D4869460394FDF7D6FA16
:104080004FF4F8606946CDE900061F480294FDF739
:10409000CDFA0520694602AACDE90005164882E856
:1040A0005001FDF7C3FA32200294CDE900050B2040
:1040B0006946CDE903601048FDF7B8FA0420694667
:1040C000CDE9000409480294FDF7B0FA8620029475
:1040D000CDE900050B2019E030380240000C024009
:1040E0000020024000280240001C0240001802404C
:1040F000001002400004024000080240000002409C
:10410000002402400000121000140240CDE90360B8
:104110001B486946FDF78AFA009769461848CDE9B9
:104120000164FDF783FA50210091CDE90154144850
:104130006946CDE9034AFDF779FA2821104802AA19
:10414000CDE90015694682E85001FDF76FFA0921B3
:1041500040200090CDE90154CDE90341094869466A
:10416000FDF764FA0520B1030091CDE90154CDE9D2
:10417000034005486946FDF759FA07B0BDE8F08FDE
:1041800000000240001C0240000402400E480021D2
:1041900010B50C4C01230D4A0460C0E90121C0E9AF
:1041A000033141618161C1610162FDF7A7FB0648EE
:1041B0000021FDF733FBBDE8104003480021FDF767
:1041C00059BB0000005C00405C020020FFEAC00018
:1041D000F0B58DB034216846FCF708FA2148002478
:1041E0001F4D2821092240F21526352340F21B17C6
:1041F00005600B25446040F2352C846040F21D1EA2
:10420000C4600461143080E8EE5080F8204080F8EB
:10421000214080F822401438FDF758FE4FF4F0702A
:104220004FF488714506CDE90040CDE90A01012728
:10423000049707A8BA020523CDE9024180E82C00C3
:10424000FF260848CDE905648DF8304000228DF83E
:10425000314069468DF83240FDF7AAFD0DB0F0BD42
:1042600000680140A80200202DE9F0410C4B00211C
:104270000C48012404255A0D1026C0E90521C1610E
:104280001827016280E8F800FEF75CF9FCF7E6FB0E
:10429000FCF7C0FBBDE8F0415C20FDF7DBBF000090
:1042A000001000A05003002004F0FEBF05F038B855
:1042B000FEE7704770B594B0012300221C061E0271
:1042C00005250695CDE90E24CDE90C620B9210244C
:1042D000CDE9002311929D05129213920595029447
:1042E000CDE903320B466A4606A9FEF77DF80028A1
:1042F00000D0012014B070BD2DE9F0434B6A4FF09F
:1043000040652BB1AA4203D004688B6A5B1E23610F
:104310008B69002B68D00C6AB4B303688C68DC61CD
:10432000CC69FCB1D1E90B38D1F824C04E6B8F8A2F
:1043300043EA080346EA0C0633430E6A43EA87431E
:10434000D1E9037C43EA0C0333438E693B430F6896
:104350002343046833433B4365E000684968816157
:10436000BDE8F083D1E90B364F6A4C6B8D8A33433D
:104370003C430E6923430C6A43EA85438D6933430A
:10438000096823432B4362E0FFE7CC69B4F10009DD
:1043900018D0D1E90B484F6A4E6BB1F814C044EA0B
:1043A00008043E430F683443CE6844EA8C443443E7
:1043B00044EA09041C4303683C431443AA425C6179
:1043C000CBD1CDE7D1E90B464F6A4D6BB1F814C0A4
:1043D00034433D4300682C43096844EA8C441C4341
:1043E0000C4314434461BBE70B6AABB303688C68AE
:1043F000DC61CC69E4B1D1E90B38D1F824C04E6B53
:104400008F8A43EA080346EA0C0633430E6A43EAFE
:104410008743D1E9037C43EA0C0333438E693B4372
:104420002343046833431343AA42636195D197E75A
:10443000D1E90B364F6A4C6B8D8A33433C430E698E
:1044400023430C6A43EA8543896933432343006865
:104450000B431343436183E7FFE7CC6984B1D1E9A0
:104460000B384F6A4E6BB1F814C043EA08033E4361
:104470003343CE6843EA8C43334323430468D2E793
:104480004C6A002C9DD0D1E90B368F8A4D6B0168A8
:10449000334325432B4343EA8740104348615FE79A
:1044A00030B58FB0054600214FF48074852300930A
:1044B0002004069401220591CDE90A21CDE90810D6
:1044C00041F288340791224628460C910D916946A5
:1044D000FDF7E0FF30BB0EA922462846FEF75EF945
:1044E00000BB284600F06EF8E0B9F0208121009171
:1044F00090FAA0F29DF838000A21B2FA82F220F078
:10450000F00091400843224669468DF8380028465D
:10451000FDF7C0FF30B90EA922462846FEF7A0F9E4
:10452000002800D001200FB030BD30B58FB0054657
:10453000002141F288344FF4807266200090CDE96A
:104540000621089122462846099105910B910C916C
:104550000D916946FDF79EFF68B99920224669468C
:1045600000902846FDF796FF28B921462846FFF718
:10457000A1FE002800D001200FB030BD2DE9F04190
:10458000984616460F460446069D08E0681C06D06D
:10459000FDF73EF9A0EB0800A8420AD84DB120680B
:1045A0008068384000D00120B042EFD10020BDE843
:1045B000F081042084F84100606C40F001006064E8
:1045C0000120F4E7F0B595B00646002441F28835A5
:1045D0004FF480712A4606200690CDE90C140E9403
:1045E00006A930460F940B94119412941394FDF77E
:1045F00051FFB8B902204FF0807CCDF83CC0430594
:104600000090102201210391CDE90443052706976C
:10461000CDE9010206A92B466A463046FDF7E4FEC5
:10462000002800D0012015B0F0BDFFF73FFE0120AB
:1046300004F041FBFBE70000502010B572B680F398
:104640001188BFF34F8FBFF36F8F62B605F0BEFCCA
:1046500018B104494FF080500860002080F31188A1
:1046600010BD000004ED00E0F0B5B3B0302121A88A
:10467000FBF7BCFF14212DA8FBF7B8FF8421684687
:10468000FBF7B4FF2248016841F0805101600068E7
:1046900000F0805032901F48016841F440410160B1
:1046A00000680224012500F440403290E003192202
:1046B000810113010926CDE9274129A9CDE921501E
:1046C00021A881E85C00FEF7A1FCFDF713FEE202E1
:1046D0004FF4A0510026CDE930122DAA0F2006215B
:1046E00082E851002DA8FEF797FB0B4803230090AA
:1046F00027044FF4C0711B9605226846CDE90514C6
:10470000CDE90723CDE90A57FEF708F933B0F0BD2C
:10471000403802400070004008000100104A30B5E7
:104720001048146800210F4B44F4700414600833DF
:1047300005680D4A0D4C45F00105056019600368D8
:10474000051D1340074A03600C322C600568E30521
:10475000034C25F480250560803C1160236030BD4A
:1047600088ED00E000380240FFFFF6FE1030002424
:104770000148FEF7F6BE000020040020F0B5274BEC
:104780004FF0804E264D02689842264E264F274C09
:1047900009D0704507D0A84205D0B04203D0B84236
:1047A00001D0A04205D1D1F804C022F070024CEA39
:1047B000020298421BD0704519D0A84217D0B042CF
:1047C00015D0B84213D0A04211D0194DA8420ED036
:1047D000184DA8420BD0184DA84208D0174DA8423A
:1047E00005D0174DA84202D0164DA84203D1CD687E
:1047F00022F440722A434D6922F080022A4302606B
:1048000098428A68C2620A68826201D0A04201D1DD
:104810000969016301214161F0BD00000000014010
:104820000004004000080040000C0040000401406B
:104830000040014000440140004801400018004091
:10484000001C0040002000407FB50A460B4C0021B0
:104850008DF80C100146012003AD03464FF47A7623
:104860000296CDE900502046FDF7A4F810B120468D
:10487000FDF72AF89DF80C0004B070BD5C02002022
:1048800077B50A4601460120094C83B0034605ADC1
:104890004FF47A76CDE9005020460296FDF73CF9B8
:1048A000002802D02046FDF70FF806B070BD0000CA
:1048B0005C020020FEE7002809DB410900F01F022E
:1048C0008900012001F1E0219040C1F8000170470A
:1048D00030B50468256825F440350D43256001682E
:1048E0004C6B24F0070414434C630068016C6FF3B5
:1048F0000D0119430164002030BD00280DDB410982
:1049000000F01F028900012001F1E0219040C1F870
:104910008001BFF34F8FBFF36F8F704709070028E7
:104920004FEA116104DB00F1E02080F800147047C9
:1049300000F00F0000F1E02080F8141D7047000027
:1049400010B500F0B5F8044800684068016849698E
:10495000BDE8104008470000DC010020FBF7A5FD82
:10496000144800B58BB00078C0071FD1114803F080
:104970009FFFD8B13F2210490020099008900A23D8
:10498000CDE906120D490122CDE90220CDE904014D
:104990000421CDE900010A490A4801F039F90A4A1F
:1049A0000A49FBF78DFD0348AFF300800BB00548C3
:1049B00000BD0000CC000020789900908CA5000874
:1049C000849900908C92002000000008555C00083B
:1049D000144800B58BB00078C0071FD1114803F010
:1049E00067FFD8B13F221049002009900890142396
:1049F000CDE906120D490122CDE90220CDE90401DD
:104A00000421CDE900010A490A4801F001F90A4AE6
:104A10000A49FBF755FD0348AFF300800BB005488A
:104A200000BD0000D00000207C99009090A50008F7
:104A300094990090B092002000000008555C000896
:104A4000144800B58BB00078C0071FD1114803F09F
:104A50002FFFD8B13F221049002009900890282349
:104A6000CDE906120D490122CDE90220CDE904016C
:104A70000421CDE900010A490A4801F0C9F80A4AAF
:104A80000A49FBF71DFD0348AFF300800BB0054852
:104A900000BD0000D40000208099009094A500087B
:104AA000A4990090D492002000000008555C0008F2
:104AB0000E49002070B50860BFF34F8F081F43F602
:104AC000FF7300680A4DC0F34E31C0F3C90203EA18
:104AD0004114104644EA80762E60401EFAD2491EE8
:104AE000F5D2BFF34F8FBFF36F8F70BD84ED00E041
:104AF00074EF00E010B5094C074820602046FCF731
:104B0000B3FB074808492061064860614FF08060A8
:104B1000C1F8000110BD000000B002401C020020DE
:104B2000414900085D49000808E000E040F2EF104C
:104B3000704700002DE9FC47086800264FF4003755
:104B40000C4620280DD040280BD0042809D0002185
:104B5000802889464FF4807A01D0504503D1012046
:104B600002E00121F4E70020804601F027FB016804
:104B7000096A884705462068402815D004DC0428C7
:104B80000AD020280BD10FE0802803D0504506D151
:104B9000092609E00A2607E0102D1AD003E0102D9F
:104BA0004FF0000715D001264748102D476013D05D
:104BB0004FF001018160E18A8246228AA1EB020165
:104BC000C160E08A218AA0EB010308D14FF0020204
:104BD00007E04FF00206E7E74FF00201EAE74FF087
:104BE000010239483946FFF773FECAF82C6049EADA
:104BF0000800228A5FEA0009A08A5146A0EB020061
:104C0000CAF8280021D0207FFF2804D202200863A0
:104C1000207F486301E000200863B8F1000F06D050
:104C2000102D27D0227FA06940EA02604863E08A05
:104C3000102D228AA0EB0200886139D00120CAF829
:104C40001C0021480021FCF7F5F91F480121FCF761
:104C5000F1F9FFF72DFFB9F1000F2BD0618A208AFF
:104C6000CDE90001E268184861681346FCF786F94F
:104C7000BDE8FC87208B1F233F26227FC0F3C4277B
:104C8000C0F3451CC7EB0727B7FBF3F700F01F0085
:104C9000CCEB0C2CBCFBF6F6C0EB0020B0FBF3F029
:104CA000120642EA074242EA062202434A63BEE78C
:104CB0000220C4E7608A0090238A0348E2686168A2
:104CC000FCF730FBD4E700001C0200202DE9FC4774
:104CD0000C4601F073FA0168096A884710280646F5
:104CE00025D000BF4FF00100814623D1208B4FF02B
:104CF0001F024FF03F03217FC0F3C425C0F34517C7
:104D0000C5EB0525B5FBF2F500F01F00C7EB072743
:104D1000B7FBF3F3C0EB0020B0FBF2F04FEA016108
:104D200041EA054141EA032747EA000706E04FF060
:104D30000200D9E7217FA06940EA016720684FF4AB
:104D4000003A082817D04FF440352F48102E456000
:104D500013D000BF4FF001018160E18A8046228AB2
:104D6000A1EB0201C160E08A218AA0EB010307D117
:104D70004FF0020206E05546E7E74FF00201EBE78D
:104D80004FF0010220482946FFF7A2FD5545404655
:104D900017D100F12C030122092183E88600E18A62
:104DA000102E228AA1EB0201816108D05FF001017F
:104DB0001548C8F81C100021FCF73CF906E0022158
:104DC000F6E7C0F82C900022C8F8282001210E48F0
:104DD000FCF730F9FFF76CFE55450BD1618A208A4C
:104DE000CDE90001E16808480B460A46FCF7C6F821
:104DF000BDE8FC87608A39460090238A0248E26851
:104E0000FCF790FAF4E700001C0200200168896AB0
:104E10000847000010B500F10C0141600022027249
:104E20000B46427207496022016000F120011846DA
:104E300001F020F8044960232022143003F026FDFD
:104E4000203810BDECA500084D69000810B50446D7
:104E5000074820600748FCF73DF907494FF080609C
:104E6000C1F88001BFF34F8FBFF36F8F204610BD95
:104E7000ECA500081C02002008E000E000F096B855
:104E80007047000010B500F093F80149016010BDB3
:104E90003CA600080149016070470000F0AB000823
:104EA00000F042B900F05AB970B500F060F90E494F
:104EB00000200860BFF34F8F081F43F6FF730068A0
:104EC0000A4DC0F34E31C0F3C90203EA4114104643
:104ED00044EA80762E60401EFAD2491EF5D2BFF316
:104EE0004F8FBFF36F8F70BD84ED00E074EF00E073
:104EF00000F03FB900F046B900F04EB900F058B9E3
:104F00007047000000F1040C10B500F12C0200F114
:104F1000DC0300F1F00400F114018CE81E00124AD9
:104F20000260084600F056FF104940F8181B00F0D8
:104F300051FF0F4940F8B01B00F04CFF0D4940F8FD
:104F4000DC1900F510710246F03000F0C3F800F5EE
:104F5000A87000F0B0F9A0F51074A0F5A87000F0EA
:104F600047F9204610BD000024A70008ACAF000898
:104F700078AF0008E0AF0008084910B540F8F01B12
:104F800000F092F9143800F02DFFB03800F02AFF3D
:104F9000183800F027FF143810BD000024A70008BF
:104FA0000048704754A50008022070477047000071
:104FB000FEB501F0BFFF30490022C26300F14C038F
:104FC000016000F14001FF248A80CA800A814A8181
:104FD0001A805A809A80DA80012342658265C26510
:104FE00080F8642080F865307030244B0B6081F8C5
:104FF00026408A6281F82C2000F056FDA0F1700650
:10500000002230384FF4887104464FF4F073009159
:10501000114601F0E7FF1A48A621DE228B2305681E
:105020002DB195F8760020B1E86C18B901E0FBF7D6
:105030003CFAA8680568ED6AA847A06206F170000E
:1050400075220546B02102F035F80022ADF808209F
:105050000123ADF8043002A9284601AAAB8601F06D
:1050600078FC301D214603F075F8301D294603F009
:1050700071F83046FEBD000038A7000814AA0008E9
:10508000DC0100200149016001F0B4BB38A7000831
:1050900070477047044A0023836002F11803C1601F
:1050A000C0E90023704700006CA70008704701208A
:1050B0007047000000487047F892002010B5044681
:1050C000D0F84C0100F0F6F82046BDE8104000F0A2
:1050D00011BA000010B500F0ABF80149016010BD35
:1050E00094A7000870B5094C15460E46206858B1C3
:1050F00001697020884738B12068324629464369E3
:1051000070209847012070BD002070BD0C00002069
:10511000024903480860C168702008470C0000205D
:105120002C0000207047000070B5044600F02AFFF4
:1051300000F04CF901462068C26C20469047206878
:1051400000234FF04041044A456F2046A847002005
:1051500084F84A0070BD000000FA05C05A2010B55E
:10516000FFF7A9FBBDE810405820FFF7A4BB00F0F3
:1051700069BF5A2010B5FFF7C0FBBDE810405820AA
:10518000FFF7BBBB03480122024B883B01601A605A
:1051900070470000AC68014009215A2010B5FFF7A4
:1051A000BDFB0921BDE810405820FFF7B7BB000048
:1051B0000C4810B50C4B011D00680A4A094C2832F6
:1051C0003434C0F30A00401E80B218800968C1F36D
:1051D0000A01491E59802060106840F001001060EB
:1051E00010BD00000C6801401C000020704700004A
:1051F000054A00F59C71D2E90032CA60C1E9010399
:10520000C0F83411704700007CA5000808B5D0F83C
:105210004C11054B009100F59871D0F848210348D6
:1052200005F07AF808BD0000900100208C010020F4
:105230002DE9F04115460E4600F0DCFB0746144808
:1052400014480021154AC7F83011C7F83411076017
:105250001148386007F59C70124CC0E90021104AD3
:10526000D2E90212C0E90212C7E952562068016869
:105270008A6800219047216891F8760008B1C86CCF
:1052800000B9886802F09DFA3846BDE8F081000058
:1052900080A9000894010020FCA7000824AC0008A5
:1052A0007CA50008DC010020014901607047000076
:1052B000FCA70008704700210160704730B5044C1E
:1052C000039D04600171C2800381458130BD0000EF
:1052D00038A8000803220021012010B504F0ACFA20
:1052E000074CA06020B100231A46194604F016FBB3
:1052F00001210022084604F09FFA606010BD000002
:10530000200000200B4808B54068002811D000217B
:1053100000910B4607496A4604F0B8FB0098002844
:1053200007D005494FF080500860BFF34F8FBFF39F
:105330006F8F08BD2000002004ED00E00749002227
:1053400010B50C46606804F05DFC60682146BDE85D
:1053500010404FF0FF3204F055BC00002000002048
:10536000034800231A461946806804F0D7BA0000A3
:105370002000002002484FF0FF31806804F0E6BCB6
:105380002000002002480021806804F0DFBC0000FB
:105390002000002008B5002069460090074880687A
:1053A00004F0DAFB0098002807D005494FF0805040
:1053B0000860BFF34F8FBFF36F8F08BD2000002040
:1053C00004ED00E041607047704770470148C068D5
:1053D000704700008801002003484068002802D080
:1053E0000268926A104770478801002077B587B03D
:1053F000064608A802F039FF00286ED1B6F8E8404A
:1054000006F1A805ECB3641E55D4A0B205EBC000AC
:105410000168009108A940680190684602F02DFFDC
:1054200000285AD108A8694602F027FF28B1A2B285
:10543000294602A805F003F8E5E708A9684602F046
:1054400041FF48B1A2B2294602A804F0F8FF08A81B
:10545000694601F036F9D6E7DDE90801CDE9020138
:1054600002A8694601F02DF9BDF82400BDF8261008
:10547000BDF8062010FB01F0BDF8041011FB02027C
:1054800000E018E002EB420000EBC201BDF80C00A6
:10549000BDF80E2010FB02F000EB800040008142BE
:1054A000B1DDA2B2294604A804F0C9FFDDE902017A
:1054B000CDE90801A7E7B6F8E800082808D10722D7
:1054C0002946684604F0BBFF08A8694601F0F9F8D0
:1054D000DDE90812284604F0D6FF0AB070BD0000CE
:1054E00003484068002802D00268D269104770471C
:1054F000880100202DE9F0413B4D04460026A868B4
:1055000008B1017A19B194F82D1129B113E084F88A
:105510002D610168896862E068B1007A58B16868F5
:1055200010B1016809698847A8680168C968884797
:10553000012084F82D0100270BE0E01990F8880085
:1055400030B1B8B2211D51F820000168096D8847BB
:105550007F1CB4F88400B842EFDC83B238E0E01876
:1055600090F88800A0BB201D99B2221D52F821702E
:10557000002218E050F82210B94213D1114606E07B
:1055800000EB810CDCF804C040F821C0491CB0F8E5
:1055900080C08C4501DD1F29F2DB1FFA8CF1491E0A
:1055A000A0F88010521CB0F880109142E2DC98B252
:1055B00006E02118401C80B291F8892081F88820EB
:1055C000B4F884108142F4D888B2204480F888600E
:1055D0005B1EC4D56868002804D00168496ABDE82C
:1055E000F0410847BDE8F081880100200348406889
:1055F000002802D002689269104770478801002095
:1056000003484068002802D00268126A10477047B9
:10561000880100202DE9F04F99B0044680F82C1144
:1056200029B10020A4F8E80019B0BDE8F08FB4F863
:10563000E80098B10020B84E80F00105306920B133
:1056400006F1140002F011FE50B1002DECD001A8BB
:1056500004F028FF358804F1A80720E00120EAE7DC
:10566000AD48143000F052FCD6E905122046FFF791
:10567000BDFE0020009003460246014601A801F04D
:105680006BF8016871614068B061E0E707EBC50045
:105690000168426801A804F0F6FE6D1CADB2B4F8D2
:1056A000E800A842F2D8358804F1EA0BB24608E0D7
:1056B0000BEBC500016842682046FFF797FE6D1CA2
:1056C000ADB2B4F82A01A842F2D89448006890F824
:1056D0004800012806D0DFF844820228BAF80050BA
:1056E00074D0FAE0BAF8006000250CE0B0B207EB25
:1056F000C000804602F0B4FDA84203DD404602F03F
:10570000AFFD0546761CB4F8E800B042EEDC8448F4
:1057100000880F2801D9C00800E001208146002040
:10572000009003460246014612A801F015F8DFF882
:10573000EC8152E0D1F880108847064612A802F0AA
:105740008FFD4844B0420BDDAE4209DA12A802F0E8
:1057500087FDB0423BDD12A802F082FD002836DD55
:1057600012A802F07DFDB04201DCB54200DA2E46FF
:1057700012A802F075FD361A12A802F071FD024659
:1057800030B2009067480021008803B216A800F0EC
:10579000E3FF0168129140681390BAF8006010E0CE
:1057A00007EBC60112AA14A802F0C9FD14A802F062
:1057B0005CFD20B9206814A9C26A20469047761C77
:1057C000B6B2B4F8E800B04207D9E9E710E0D8F87B
:1057D00000000168CA6F0121904712A802F040FD45
:1057E000A842D8F800000168A4DBC969884778E0BE
:1057F000DFF8349150E007EBC5004E460168149184
:105800004068159099F80000012802D114A800F012
:105810003BFB14A802F029FDE0BB12A800F0A3FF97
:10582000BDF85000B146ADF84800BDF85200ADF8E3
:105830004A00BDF85400ADF84C0014A8D8F8006038
:1058400002F00EFDBDF84A10BDF84C30401A80B28F
:10585000009030688AB2BDF84810D0F878C0304661
:10586000E047ADF84E0099F80000012819D02068F3
:1058700012A9C26A20469047BDF84A00BDF84E10F2
:105880000844ADF84A0014A802F0EAFCBDF94A1039
:105890008842D2DC6D1CADB2B4F8E800A842AAD8A8
:1058A0001FE0DDE91201CDE9160116A800F02EFB7C
:1058B000206816A9C26ADDE707EBC50001681291EE
:1058C0004068139012A802F0D0FC20B9206812A9F9
:1058D000C26A204690476D1CADB2B4F8E800A842F9
:1058E000EAD81248007800283FF49EAE0020A4F8C1
:1058F0002A01BAF8004009E001A800EBC4000168E1
:105900004268584604F0BFFD641CA4B2BDF84400D0
:10591000A042F1D888E6000088010020DC010020C8
:10592000D4010020D2010020CC010020CD010020B4
:105930000022A0F8842011464318491C202983F82E
:105940008820F9DB7047704770B50646194886B065
:105950000C4600221146008800B2009016480088CC
:1059600003B203A800F0F8FE0246214601A802F0A7
:10597000E6FC0199114D2160029A62606868002876
:1059800005D096F82C3123B13046FFF72FFD06B035
:1059900070BD01688A6821469047286918B101687E
:1059A0008A68214690470648006801684A6921468E
:1059B0009047ECE7D4010020D201002088010020AC
:1059C000DC0100203EB50A49044608480022098847
:1059D00000880BB2114600B2009001A800F0BCFE96
:1059E000206801A9C26A204690473EBDD40100202C
:1059F000D201002070B5154900250160A0F884503F
:105A0000A83004F04FFD423004F04CFD80F84250C5
:105A1000A0F1EA0480F843500D490E48FBF7E2F884
:105A200000B101200C4E08B1358006E04FF48060D3
:105A300030800220706001F045F9F5602046756005
:105A4000B560FFF775FF204670BD00004CA8000848
:105A5000CDB5E8B5C2A507F488010020014908606A
:105A600070470000C801002030B5044C039D04605D
:105A70000171C2800381458130BD000088A8000803
:105A8000012101727047704790F82C2082B042B11A
:105A90000A79012A05D1C28DADF80020038EC38595
:105AA000028602B000F0D7B810B500F063FF0349DA
:105AB0004FF6FF720160828610BD0000BCA800088E
:105AC00070B50D460446606801684A689047002832
:105AD000F9D10B4E30680168496E8847FFF752FCD8
